:04000000CEEF3EF011
:107D44007800F401938493829F0E6E6E800E6D6EA4
:107D5400280E6C6E12006B80A4AEB3EF3EF0B5EF4C
:107D64003EF0AEEF3EF0A49E12006B84A4AEBDEFD5
:107D74003EF0BFEF3EF0B8EF3EF0A49E1200016E5D
:107D840001C06FFFA4AEC9EF3EF0CBEF3EF0C4EFED
:107D94003EF0A49E6B501200440EF66E7D0EF76EFC
:107DA400000EF86E00EE0FF010EE04F00900F5CFAF
:107DB400EEFFE550E150FAE10E6A0D6A0C6A0B6AB7
:107DC4000A6A096A00016CEF3FF0066EADEC3EF002
:107DD400800EC1EC3EF00650040DF350060FC1ECCA
:107DE4003EF00250C1EC3EF00350C1EC3EF00450B2
:107DF400C1EC3EF00550C1EC3EF0B7EC3EF0120091
:107E0400000E0F01386F000E396F000E3A6F700EBE
:107E1400D3129B8C000E926E000E936E000E946E25
:107E2400000E896E000E8A6E000E8B6E000E806E40
:107E3400000E816E000E826E1200ADEC3EF0800EDC
:107E4400C1EC3EF0000EC1EC3EF0310EC1EC3EF050
:107E5400B7EC3EF0150E026EC60EE82EFED7022ECB
:107E6400FCD700D0ADEC3EF0800EC1EC3EF0FE0E2F
:107E7400C1EC3EF07A0EC1EC3EF0B7EC3EF0150ECC
:107E8400026EC60EE82EFED7022EFCD700D0ADEC53
:107E94003EF0800EC1EC3EF0000EC1EC3EF0A10EAF
:107EA400C1EC3EF0B7EC3EF0150E026EC60EE82EA5
:107EB400FED7022EFCD700D0ADEC3EF0800EC1EC14
:107EC4003EF0010EC1EC3EF0040EC1EC3EF0B7EC06
:107ED4003EF0120002EC3FF0A4EC3EF01FEC3FF049
:107EE400000E0E6E780E0D6EA0EF3FF0000E036EC6
:107EF400000E026E0DC004F00EC005F0000EE7EC9B
:107F04003EF0000E036E000E026E0DC004F00EC0B3
:107F140005F0010EE7EC3EF0050E086E0F0E076E3D
:107F2400F10EE82EFED7072EFCD7082EFAD700F064
:107F3400050E0D240D6E000E0E200E6EF40E0D5C5B
:107F4400010E0E58D8A0A9EF3FF0ABEF3FF078EF49
:107F54003FF0110E086E3C0E076ECB0EE82EFED7D6
:107F6400072EFCD7082EFAD700F0010E0E6EF40E81
:107F74000D6EE5EF3FF0000E036E000E026E0DC0B5
:107F840004F00EC005F0000EE7EC3EF0000E036EA8
:107F9400000E026E0DC004F00EC005F0010EE7ECF9
:107FA4003EF0050E086E0F0E076EF10EE82EFED79A
:107FB400072EFCD7082EFAD700F0FB0E0D240D6E09
:107FC400FF0E0E200E6E0E5007E1790E0D5CD8B038
:107FD400EEEF3FF0F0EF3FF0BDEF3FF0110E086E13
:107FE4003C0E076ECB0EE82EFED7072EFCD7082ECC
:0C7FF400FAD700F072EF3FF000EF00F051
:020000040020DA
:08000000FFFFFFFFFFFFFFFF00
:020000040030CA
:0E000000FF28193CFFB581FF0FC00FE00F4035
:00000001FF
